S01000005265636F726465722E73726563DE
S11300000C94F2000C940F010C940F010C940F014A
S11300100C940F010C940F010C940F010C940F011C
S11300200C940F010C940F010C94FB190C94351AC9
S11300300C940F010C940F010C940F010C940F01FC
S11300400C940F010C940F010C940F010C940F01EC
S11300500C940F010C949C1D0C940F010C940F0133
S11300600C940F010C940F010C940F010C940F01CC
S11300700C940F010C941F010C940F010C940F01AC
S11300800C940F010C940F010C940F010C940F01AC
S11300900C940F010C940F010C940F010C940F019C
S11300A00C940F010C94D71C0C940F01A018531836
S11300B0C7171B18C717C717C7170B18C717C717B2
S11300C0C717C717C717C717C717C717C717C7173C
S11300D0C717C717C717C717C717C717C717C7172C
S11300E0C717C717C717C717C717C717C717C7171C
S11300F0C717C717C717C717C717C717C717C7170C
S1130100C717C717C717C717C717C717C717C717FB
S1130110BB18A8180018E817D71700010000C7017A
S11301201200020000840143000300008001040166
S11301300309046A011402030904520116030309A2
S11301400444010C0C033100320033003400350048
S113015000001603550053004200200053006500C0
S11301607200690061006C000000140359006F0004
S11301707500720020004E0061006D0065000000F3
S11301800403090409024300020100C03209040007
S113019000010202010005240010010524010101EF
S11301A0042402060524060001070582031000400A
S11301B009040100020A00000007050302400000D0
S11301C0070584024000001201000202000010C072
S11301D0167A040001010203010001C112018036F4
S11301E00181360011241FBECFEFDAE0DEBFCDBFA0
S11301F012E0A0E0B1E0E6E2FAE402C005900D925C
S1130200A63DB107D9F729E0A6EDB2E001C01D92E1
S1130210A138B207E1F70E940B1C0C9411250C9431
S1130220000080E680937C0083E080937B00089547
S11302308EEA80937A00089510927A0008951F92AE
S11302400F920FB60F9211242F933F934F935F9306
S11302506F937F938F939F93AF93BF93EF93FF938A
S1130260809179000E946701FF91EF91BF91AF9156
S11302709F918F917F916F915F914F913F912F91BA
S11302800F900FBE0F901F9018952091040130918C
S113029005013093FE022093FD0230930007209362
S11302A0FF069093FA028093F9027093FC02609324
S11302B0FB02089580910401909105019093FE0240
S11302C08093FD02909300078093FF060895E091C8
S11302D0FD02F091FE029F012F5F3F4F3093FE021B
S11302E02093FD0280838091FD029091FE02209173
S11302F00201309103018217930781F020910001DC
S1130300309101018217930709F008958091040147
S1130310909105019093FE028093FD02E091F90211
S1130320F091FA020994CF93E091FF06F09100074F
S1130330CF010196909300078093FF06C08120911E
S11303400201309103018217930791F0209100017B
S1130350309101018217930719F08C2FCF910895E2
S11303608091040190910501909300078093FF060A
S1130370E091FB02F091FC0209958C2FCF91089536
S113038080910401909105012091FF0630910007AE
S11303908217930748F020910201309103013093B2
S11303A000072093FF060895309102012091030174
S11303B0909300078093FF06832F922F08958091D6
S11303C00401909105012091FD023091FE028217F3
S11303D0930748F020910201309103013093FE020B
S11303E02093FD020895309102012091030190931E
S11303F0FE028093FD02832F922F0895DC01ED917C
S1130400FC911197309719F16081613268F06A3379
S1130410F1F0AF014F5F5F4FFA0102C09A3339F038
S11304209F0191919132D0F780E090E008952417D4
S1130430350769F480ED860F823048F4262F30E0CA
S1130440C901C097FA013196ED93FC9308958FEF9B
S11304509FEF0895009749F0DC01ED91FC9111970D
S1130460309719F02081211102C089E00895268176
S1130470378112968D919C91139728173907A9F704
S113048081810E94D11680FDF0CF80E008958F9283
S11304909F92AF92BF92CF92DF92EF92FF920F930F
S11304A01F93CF93DF93EC01CAA4DBA4ECA4FDA4B7
S11304B05C010EE2A00EB11C01E010E0A701960160
S11304C0B50189810E942C17811140C01C828E893C
S11304D09F89A88DB98D4E8D5F8D68A179A19701F3
S11304E08601041B150B260B370B081719072A075F
S11304F03B07F0F48B80912C12E08116910428F4D0
S113050017C08E899F89A88DB98DC80ED91EEA1E81
S1130510FB1E01E010E0A7019601B50189810E944C
S11305202C1721E0821A910831E08316910449F7CF
S113053080E0DF91CF911F910F91FF90EF90DF90BA
S1130540CF90BF90AF909F908F90089581E0F1CFAE
S1130550CF92DF92EF92FF920F931F93CF93DF938B
S1130560EC016A017B018AA59BA5ACA5BDA58417F6
S11305709507A607B70749F18C81811120C001E0D6
S113058010E0A7019601BE01625D7F4F89810E9440
S1130590D81681110EC080E0CAA6DBA6ECA6FDA683
S11305A0DF91CF911F910F91FF90EF90DF90CF904B
S11305B0089581E0CC24CA94DC2C7601EDCFCE01E1
S11305C00E9447028111ECCFDACF80E0E9CFCF93CC
S11305D0DF93EC011C828FEF9FEFDC018AA79BA7BE
S11305E0ACA7BDA7CE010E94A802882321F083E016
S11305F0DF91CF910895FE01E45DFD4F80819181EB
S113060085359A4A21F082E0DF91CF910895E85C24
S1130610F14080819181A281B381BB2786349144CA
S1130620A445B10569F0C058DF4F488159816A81FA
S11306307B81772781E04634514464457105C1F6D6
S113064080E0D6CF2F923F924F925F926F927F922B
S11306508F929F92AF92BF92CF92DF92EF92FF92CE
S11306600F931F93CF93DF93CDB7DEB76D970FB67C
S1130670F894DEBF0FBECDBF6C01CB01B42ED60102
S11306801D921C920E94FE017C0197FD39C0FC0161
S1130690EE0FFF1FE852FD4F008111810115110576
S11306A089F1F60111830083D8018C91882331F0FC
S11306B011968C910E94D11680FF26C0F8011082F9
S11306C0E1828E2D0E94F11580FF26C083E06D9695
S11306D00FB6F894DEBF0FBECDBFDF91CF911F914F
S11306E00F91FF90EF90DF90CF90BF90AF909F90CD
S11306F08F907F906F905F904F903F902F900895D0
S11307008BE0E5CF8CE0E3CFBB2021F082FF02C079
S11307108AE0DDCF80E0DBCFBB2011F082FDF8CF93
S113072040E050E0BA01C8010E94E702813031F094
S1130730833091F1882391F18DE0C9CFF801E05124
S1130740FE4F9E012F5F3F4F59014E0131E1830E51
S1130750911CD5018081882309F447C144815581C6
S1130760668177814D935D936D937D9370968A1620
S11307709B0681F7D501CD90DD90ED90FD905D0154
S1130780C114D104E104F10409F033C182E0A814D6
S1130790B90481F7833081F681E099CFC12CD12C43
S11307A07601F80181AD92AD8115924029F6F801E8
S11307B0EC5BFF4F40805180612C712C411451043B
S11307C06104710429F43E964080518062807380F4
S11307D0D80156964D925D926D927C925997DE9611
S11307E0AC91F801A3838FEF8A0F823008F0A4CF75
S11307F0F3ADFD8B2F2FF8012283222309F49CCF24
S1130800822F90E09C012150310982239323892B6C
S113081009F092CFFF9620803180F801318620863E
S1130820C1018F709927892B09F086CFEF5BFF4FA9
S113083080809180A12CB12C81149104A104B10475
S113084029F43D9680809180A280B380F80104ACA5
S1130850F5ADE02D309709F46FCFB0E0A30192011C
S11308600E94E9216A8F7B8F8C8F9D8F9F0140E0CE
S113087050E02E8B3F8B488F598FC1019295829502
S11308808F7089279F708927280F391F411D511D9B
S1130890DA01C9012A8D3B8D4C8D5D8D280F391FDE
S11308A04A1F5B1F298B3A8B4B8B5C8B82169306FA
S11308B0A406B50608F440CFC501B401621B730B4E
S11308C0840B950BED892E2F30E040E050E00E9420
S11308D0C121211531054105510509F42DCF263FCC
S11308E0FFE03F074105510508F430C1263F8FEF73
S11308F038074105510508F4C7C049015A01B2E05F
S11309008B0E911CA11CB11CF801828A938AA48AC3
S1130910B58AC28ED38EE48EF58E8E899F89A88D7A
S1130920B98D8C0D9D1DAE1DBF1D868F978FA0A305
S1130930B1A389899A89AB89BC898C0D9D1DAE1D93
S1130940BF1D86A397A3A0A7B1A7232809F0F4CEBF
S1130950F801E65AFF4F80819181A281B381F801A9
S113096082A393A3A4A3B5A3880C991CAA1CBB1CA3
S1130970880C991CAA1CBB1CFFEF8F0EF1E09F1E74
S1130980A11CB11C79E0B694A794979487947A95A6
S1130990D1F7481459046A047B0408F4CDCE8FEFD0
S11309A09FEFDC01F80186879787A08BB18B828744
S11309B09387A487B58780E88583E25AFF4F8081B7
S11309C091810197F1F083E0D8018C938091D60254
S11309D09091D70201969093D7028093D6021796EE
S11309E09C938E93169780E072CE40E050E0BA015B
S11309F0B9CEB701A601C8010E94E7028111C7CE92
S1130A00D0CEB701A6014F5F5F4F6F4F7F4FC80134
S1130A100E94A8028111D7CFD80115961C92F80123
S1130A20E45DFD4F8081918185359A4A61F6F80134
S1130A3086A597A5A0A9B1A982359245A146B1443E
S1130A4011F6F801EE5EFD4F80819181A281B381A0
S1130A5082379247A144B14609F0B5CF34968081DC
S1130A609181A281B381F80186879787A08BB18B8E
S1130A70E65EFD4F80819181A281B381F801828776
S1130A809387A487B5879FCF49015A0182E0880ED6
S1130A90911CA11CB11CD80152968D929D92AD92CD
S1130AA0BC925597F801C28ED38EE48EF58E8E8952
S1130AB09F89A88DB98D8C0D9D1DAE1DBF1D868F80
S1130AC0978FA0A3B1A329893A894B895C89C20E67
S1130AD0D31EE41EF51EC6A2D7A2E0A6F1A62328C3
S1130AE009F42ACE2A8D3B8D4C8D5D8D820F931F88
S1130AF0A41FB51FF80182A393A3A4A3B5A3880CD4
S1130B00991CAA1CBB1CFFEF8F0EF1E09F1EA11CB9
S1130B10B11C59E0B694A794979487945A95D1F749
S1130B20481459046A047B0408F406CE8FEF9FEF3F
S1130B30DC01F80186879787A08BB18B8287938726
S1130B40A487B58780E8858382E03ECF49015A01B6
S1130B5082E0880E911CA11CB11CD80152968D9282
S1130B609D92AD92BC925597F801C28ED38EE48EBD
S1130B70F58E8E899F89A88DB98D8C0D9D1DAE1D16
S1130B80BF1D868F978FA0A3B1A329893A894B896A
S1130B905C89C20ED31EE41EF51EC6A2D7A2E0A62F
S1130BA0F1A6232809F4C8CD2A8D3B8D4C8D5D8D8B
S1130BB0820F931FA41FB51FF80182A393A3A4A3BC
S1130BC0B5A3A3E0B0E0A50194010E94E921DC01F2
S1130BD0CB01B695A79597958795F1E08F22992437
S1130BE0AA24BB242FEF820E21E0921EA11CB11C6B
S1130BF0880D991DAA1DBB1D39E0B695A79597953B
S1130C0087953A95D1F7481659066A067B0608F483
S1130C1093CD8FEF9FEFDC01F80186879787A08B38
S1130C20B18B82879387A487B58780E8858381E029
S1130C30CBCEAF92BF92CF92DF92EF92FF920F93FF
S1130C401F93CF93DF93EC016A017B01888182308B
S1130C5009F45AC0833061F1813079F061E070E0C9
S1130C6080E090E0DF91CF911F910F91FF90EF9082
S1130C70DF90CF90BF90AF9008958A0116950795A5
S1130C800C0D1D1DC801892F992786954E8D5F8DEA
S1130C9068A179A1480F591F611D711DCE010E94E1
S1130CA0A802882309F452C06FEF7FEFCB01DACF9B
S1130CB08E8D9F8DA8A1B9A127E07695679557954C
S1130CC047952A95D1F7480F591F6A1F7B1FCE01FC
S1130CD00E94A8028111E8CFCC0CDD1CEE1CFF1C85
S1130CE0CC0CDD1CEE1CFF1C8CEFC82281E0D8224A
S1130CF0EE24FF24CC0DDD1D8EA59FA5A8A9B9A9BE
S1130D00BC01CD019F70AECF77276F2D5E2D4D2D89
S1130D108E8D9F8DA8A1B9A1480F591F6A1F7B1FF3
S1130D20CE010E94A8028111BFCFCC0CDD1CEE1CA9
S1130D30FF1CE894C0F881E0D822EE24FF24CC0DF7
S1130D40DD1D6EA57FA580E090E08CCF58018FEF6C
S1130D50A81AB80A1170FE01E00FF11F16A5C5010B
S1130D60892F992786954E8D5F8D68A179A1480FAB
S1130D70591F611D711DCE010E94A802811194CFDB
S1130D8081E0B822CA0DDB1D8EA5612F70E0782B9F
S1130D90C0FE09C0729562956F7067277F706727E0
S1130DA080E090E05FCF7F7080E090E05BCF4F9277
S1130DB05F926F927F928F929F92AF92BF92CF92E7
S1130DC0DF92EF92FF920F931F93CF93DF93EC0187
S1130DD06A017B0128013901888032E0831609F415
S1130DE0A0C083E0881609F460C031E08316A1F046
S1130DF092E0992E892DDF91CF911F910F91FF9051
S1130E00EF90DF90CF90BF90AF909F908F907F90A6
S1130E106F905F904F9008958A0116950795040F7F
S1130E20151FC801892F992786954E8D5F8D68A15E
S1130E3079A1480F591F611D711DCE010E94A8029E
S1130E40982E8111D7CF58018FEFA81AB80A1170C4
S1130E50FE01E00FF11FC0FE8BC086A5282F2F7066
S1130E6030E1439EC0011124822B86A78C824E8DD3
S1130E705F8D68A179A1C501892F99278695480FAF
S1130E80591F611D711DCE010E94A802811183C0EA
S1130E9081E0B82284E076946794579447948A95C5
S1130EA0D1F7FE01EA0DFB1D83C08E8D9F8DA8A195
S1130EB0B9A137E076956795579547953A95D1F757
S1130EC0480F591F6A1F7B1FCE010E94A802982E4B
S1130ED0811190CFCC0CDD1CEE1CFF1CCC0CDD1C56
S1130EE0EE1CFF1C8CEFC82281E0D822EE24FF24E4
S1130EF03EE2C30ED11CFE01EC0DFD1D80819181EB
S1130F00A281B38188279927AA27B07F482A592A22
S1130F106A2A7B2A408251826282738281E08C83B6
S1130F2069CF77276F2D5E2D4D2D8E8D9F8DA8A1B6
S1130F30B9A1480F591F6A1F7B1FCE010E94A80246
S1130F40982E811157CFCC0CDD1CEE1CFF1CE894AD
S1130F50C0F881E0D822EE24FF243EE2C30ED11C67
S1130F60FE01EC0DFD1D5182408281E08C8342CF55
S1130F7046A68C824E8D5F8D68A179A1C501892F0B
S1130F8099278695480F591F611D711DCE010E9436
S1130F90A802882311F0982E2DCF31E0B322FE0150
S1130FA0EA0DFB1D96A5907F852D8F70492E482A4A
S1130FB046A681E08C831ECF4F925F926F927F9200
S1130FC08F929F92AF92BF92CF92DF92EF92FF9255
S1130FD00F931F93CF93DF93EC012A013B0141153B
S1130FE051056105710509F06BC08A849B84AC844A
S1130FF0BD848A899B89AC89BD8981149104A1042B
S1131000B10409F089C0812C912C54018394750199
S1131010640131C022E082169104A104B10408F4F1
S113102082C00397A105B105B0F182E0C82ED12C8E
S1131030E12CF12CB701A601CE010E94190661151D
S113104071058105910509F47BC06F3F2FEF72078D
S11310508207920709F46FC061307105810591051B
S1131060D1F08C149D04AE04BF0409F45CC08A89D9
S11310709B89AC89BD892FEFC21AD20AE20AF20A0F
S1131080C816D906EA06FB0628F682E0C816D1047B
S1131090E104F10478F661E070E080E090E0DF9133
S11310A0CF911F910F91FF90EF90DF90CF90BF9061
S11310B0AF909F908F907F906F905F904F90089526
S11310C0423051056105710530F38A899B89AC89E9
S11310D0BD89481759076A077B07E8F6CE010E94C5
S11310E019066B017C0182E0C816D104E104F10405
S11310F090F22FEFC216D206E206F206E1F08A89D8
S11311009B89AC89BD89C816D906EA06FB0608F492
S113111066C0530142017BCF88169906AA06BB0616
S113112008F475CF70CF60E070E080E090E0B7CF56
S1131130813009F0B0CF6FEF7FEF8FEF9FEFAFCF2C
S11311408A899B89AC89BD89C816D906EA06FB063B
S113115008F0A1CF0FEF1FEF2FEF3FE0B701A6017B
S1131160CE010E94D7068111E3CF411451046104DA
S11311707104D1F082E0481651046104710408F44A
S11311808ACF8A899B89AC89BD89481659066A0623
S11311907B0608F080CF97018601B301A201CE013E
S11311A00E94D7068111C4CFCA86DB86EC86FD86F1
S11311B08E859F85A889B9898F3F2FEF9207A20753
S11311C0B20769F00197A109B1098E879F87A88B9F
S11311D0B98B8D8181608D83B601C70160CFB60163
S11311E0C7015DCF2F923F924F925F926F927F9291
S11311F08F929F92AF92BF92CF92DF92EF92FF9223
S11312000F931F93CF93DF93DC011496CD91DC9160
S113121015972196A1F484E0DF91CF911F910F914E
S1131220FF90EF90DF90CF90BF90AF909F908F9002
S11312307F906F905F904F903F902F900895FC01A6
S113124086849784A088B18881149104A104B10490
S113125011F37B018C016E01FFE0CF22DD24C11468
S1131260D104D1F0DC01ED91FC91D8011596DC9309
S1131270CE931497BE96CC0CDD1CC294D29480EF0E
S1131280D822DC24C822DC24EC0DFD1D5396FC93EB
S1131290EE93529780E0C0CFBFEF8B1A9B0AAB0A44
S11312A0BB0AFC0186869786A08AB18A428553854B
S11312B064857585411551056105710509F1019034
S11312C0F081E02D828190E001979E013295229574
S11312D02F7023273F70232782239323892B29F6FA
S11312E0423051056105710548F082899389A489CA
S11312F0B589481759076A077B0760F082E08CCFED
S11313000190F081E02D80859185C817D90708F0F8
S113131082CFABCFCF010E9419064B015C01623032
S113132071058105910550F36F3F7F4F8F4F9F4F9C
S113133009F450C0D801ED91FC9142895389648924
S1131340758984169506A606B70670F5240135013D
S1131350B2E04B1A510861087108D8011A968D92AF
S11313609D92AD92BC921D97DB01CA010297A1091F
S1131370B109481659066A067B0670F5A281B0E0E9
S1131380A30192010E94E92186A097A0A0A4B1A480
S1131390860E971EA81EB91ED8011E968D929D9288
S11313A0AD92BC92519761CFEF2809F434CFD801A4
S11313B01A964D915D916D917C911D97CF010E947C
S11313C0DC074B015C01611571058105910541F450
S11313D087E022CF81E020CF812C912C5401DCCFF7
S11313E0613071058105910509F488CF6F3F7F4F06
S11313F08F4F9F4F79F3D801ED90FC90F7018481D2
S1131400811163C0F701BE9622EDE21A2DEFF20AB4
S11314101192EE16FF06E1F7F801E080F180240155
S11314203501F2E04F1A510861087108F701828909
S11314309389A489B5890297A109B1094816590667
S11314406A067B0608F05BC0A281B0E0A3019201AA
S11314500E94E92126A137A140A551A5DC01CB01B9
S1131460820F931FA41FB51FF70182A793A7A4A7F8
S1131470B5A7212C312C0FC0F70182A593A5A4A5F3
S1131480B5A50196A11DB11D82A793A7A4A7B5A7D1
S1131490FFEF2F1A3F0AF701828190E028163906E0
S11314A0E8F4E1E0D7011496EC93D801ED90FC90B8
S11314B0F7018481882301F3C7010E944702811147
S11314C089CFD801ED90FC90D7CFC7010E94470285
S11314D0811180CFD801ED90FC9094CF82A593A583
S11314E0A4A5B5A582199309A109B10982A793A757
S11314F0A4A7B5A742895389648975892ECF80E052
S113150090E0DC01B1CFCF92DF92EF92FF920F9384
S11315101F93CF93DF93EC011D821C82CE80DF806A
S1131520E884F98481E0C816D104E104F10459F097
S1131530E881F98182899389A489B589C816D90675
S1131540EA06FB0650F082E0DF91CF911F910F91E4
S1131550FF90EF90DF90CF900895C114D104E1047F
S1131560F10439F520812330C9F080859185892BD8
S113157051F382A193A1A4A1B5A1CA86DB86EC860E
S1131580FD860097A105B105F1F28E879F87A88B90
S1131590B98BBE96FB8BEA8B80E0D6CF42A153A1D8
S11315A064A175A14115510561057105F1F26A0146
S11315B07B018E016281662311F133C0B701A6015C
S11315C0CF010E9419066B017C016F3FBFEF7B07BF
S11315D08B079B0709F442C06230710581059105B0
S11315E008F4B1CFD801ED91FC9182899389A48943
S11315F0B589C816D906EA06FB0608F0A4CFA2E00E
S1131600CA16D104E104F10408F49DCF82899389B8
S1131610A489B589C816D906EA06FB0608F093CF53
S1131620CDCFA701960122503109410951090297F2
S1131630A109B109281739074A075B0788F4A62FBF
S1131640B0E00E94E92106A117A120A531A5DC0183
S1131650CB01800F911FA21FB31F8FCF81E074CFE6
S1131660CA86DB86EC86FD866ECF1F93CF93DF930D
S113167000D000D000D0CDB7DEB79C838B837E83AF
S11316806D83142F7A836983CE0101960E94FE0133
S113169097FD22C0880F991FFC01E852FD4F01906D
S11316A0F081E02D309709F01082EB81FC813097B6
S11316B0F1F01082DC01A852BD4FED93FC93113080
S11316C069F080E026960FB6F894DEBF0FBECDBF5A
S11316D0DF91CF911F9108958BE0F4CF40E0BE01DC
S11316E06B5F7F4FCE0103960E942203EBCFFC0178
S11316F0E852FD4F11821082E4CF2F923F924F9215
S11317005F926F927F928F929F92AF92BF92CF928D
S1131710DF92EF92FF920F931F93CF93DF93CDB796
S1131720DEB7AD970FB6F894DEBF0FBECDBF7CA376
S11317306BA3009709F493C0842E1C01DC011D9255
S11317401C924E71BE016D5D7F4FCE0101960E94C9
S113175022038823C9F0AD960FB6F894DEBF0FBEFE
S1131760CDBFDF91CF911F910F91FF90EF90DF904C
S1131770CF90BF90AF909F908F907F906F905F902D
S11317804F903F902F900895FE017796FE8BED8B3E
S1131790CBA0DCA0D6018C918F3209F462C08C35C9
S11317A009F45FC0282D2F712DA31F821886198676
S11317B01A86D6018C91803208F470C110E295E04B
S11317C0992E05C0BFEFCB1ADB0AD6018C918F325C
S11317D0C9F38C35B9F3DF01CF010B961D93A8171C
S11317E0B907E1F7B601E12CF12C40E050E008E044
S11317F0A02EB12C712C4F5F5F4FDB010D91BD0109
S1131800013208F427C10F3209F49AC00C3509F4E7
S113181097C00E3209F47CC0EA14FB0430F507FDCE
S113182024C0202F30E0023201F1A1E2B1E004C073
S113183090E028173907C9F08D918111F9CF8FEB0A
S1131840800F8A3108F072C0B72DB2607B2EDF01A1
S1131850AE0DBF1D0C93C70101967C01CCCF89E06E
S11318607ACFBFEFCB1ADB0A9DCFEB88FC8886E0EA
S1131870982D9C7109F004C181116DCFD7011B967D
S11318806C9164FD63C181FE02C060FD05C1C98025
S1131890DA8083FC57C1F60182A593A5A4A5B5A55A
S11318A0F101828F938FA48FB58FF78EE68E2DA1D1
S11318B024831582D7015A968D919C915B97A0E061
S11318C0B0E0F6012081233009F444C1F101868798
S11318D09787A08BB18BF701848D958DA68DB78DDD
S11318E0F10182879387A487B587168217821086B1
S11318F01186168A178A108E118ED182C082D60163
S113190016968D919C9117979383828380E023CFC1
S113191028E0A216B10409F0A8CF770C770CA8E050
S1131920EA2EF12CBBE0AB2EB12C65CF8FE9800FF2
S11319308A3108F08CCF272D2160722E005287CF78
S1131940C40ED51E80E0EF2809F48FCF9081953E18
S113195009F462C198E0A916B10409F45AC1972D9B
S11319609370913009F453C1972D9C70943009F40D
S11319704CC18387CE0101960E94830A811147C01E
S11319804F85588969897A8989819A810E94A80238
S113199081113DC0EB88FC88D7014C91442309F4A4
S11319A053C01B966C9163FD29C02D893E89D901D2
S11319B0F7013196C9010B9601C041915D91541311
S11319C01DC08A179B07C9F7F901838582FD46C0AC
S11319D064FF38C0D7015A968D919C915B97A0E023
S11319E0B0E0E981FA8140814330B1F08F83988778
S11319F0A987BA87D6018C91F901E9CE60E070E03D
S1131A00CE0101960E94F208882309F4B9CF8430EC
S1131A1081F0EB88FC882CCFF7014489558960E07C
S1131A2070E0BA0155274427842B952BA62BB72B9E
S1131A30DDCFED89FE8923859B898C89E92EF82EDB
S1131A4022FD86C085E014CFED89FE8923859E2D75
S1131A508F2DF4CFC40ED51E84E075CFE114F104AC
S1131A6009F4EEC0882D8C7109F40BCF6171A1F4D7
S1131A7082FE28C088E06FCE082D0C7109F46BCE6D
S1131A808430C9F4CE0101960E94830A882309F4A4
S1131A9076C0843009F05FCE87E05DCECE0101963A
S1131AA00E94830A1C8A1B8A8111E6CF082D0C71BF
S1131AB086E009F450CEEB88FC88EDA1E860EDA344
S1131AC0811149CEC980DA80FDA1F3FFE4CE80E024
S1131AD090E0A1E2B8E4F70186879787A08BB18BE9
S1131AE0868B978BA08FB18F1386D701148E158E9A
S1131AF0168E178E828D938D2C01612C712CF6011C
S1131B008081833069F454968D919C915597A0E01F
S1131B10B0E0DC0199278827482A592A6A2A7B2AB7
S1131B20D7015B961C921E925A9755961C921E9250
S1131B30549781E0F60184834114510461047104D3
S1131B4009F06CC0BDA1B062BDA3A5CE84E003CEF4
S1131B5084E08ECEF7014489558960E070E0BA01D3
S1131B6055274427842B952BA62BB72BAFCE61E0AA
S1131B7070E0CE0101960E94F20881118ACF4F8550
S1131B80588969897A8989819A810E94A802811178
S1131B9080CFEB89FC898081853E11F08111E7CFEC
S1131BA04F85588969897A8989819A810E94A80216
S1131BB08111D1CDEB89FC89CF01809611928E17CA
S1131BC09F07E1F78D899E890B891C899C01A801D7
S1131BD0465F5F4FD801F901619171919F016D9347
S1131BE07D93A417B507B9F7DC011A968C91F80117
S1131BF08287C980DA8081E0D60114968C93BDA1D6
S1131C00B860BDA3EB88FC885FCF8860B2CE8061EA
S1131C10ABCE770C770CA3CE90829CCEF2E04F161D
S1131C2051046104710450F0F60182899389A489F6
S1131C30B589481659066A067B0620F082E08BCDEA
S1131C4086E089CD82A593A5A4A5B5A58AA79BA75F
S1131C50ACA7BDA75301420138C0F601828993891C
S1131C60A489B58988169906AA06BB0638F700E048
S1131C7010E09801B501A401C6010E94D7068111A4
S1131C806ACDF60186859785A089B1898F3FFFEFDC
S1131C909F07AF07BF0759F00196A11DB11DF601BB
S1131CA086879787A08BB18B8581816085838EA081
S1131CB09FA0A8A4B9A4F60182899389A489B589AF
S1131CC088169906AA06BB0620F5B501A401C6012B
S1131CD00E9419066EA37FA388A799A761157105B1
S1131CE081059105B1F0613071058105910509F413
S1131CF0A5CF6F3F7F4F8F4F9F4F49F0E2E08E1685
S1131D009104A104B10408F0A8CF82E024CD81E0BD
S1131D1022CD89819A81B301A201415051096109FF
S1131D207109FC0142875387648775874AA55BA5BF
S1131D306CA57DA50E94A80281110DCDC980DA8011
S1131D4001CF2F923F924F925F926F927F928F9228
S1131D509F92AF92BF92CF92DF92EF92FF920F9336
S1131D601F93CF93DF93EC016B017A015901F901C1
S1131D70118210820E942A02811107C08D81811173
S1131D8004C08C8180FD14C087E0DF91CF911F9146
S1131D900F91FF90EF90DF90CF90BF90AF909F9006
S1131DA08F907F906F905F904F903F902F90089509
S1131DB08E819F81A885B9854A855B856C857D85E3
S1131DC0481B590B6A0B7B0B870120E030E040175E
S1131DD051076207730708F47A01E114F10409F466
S1131DE071C0212C42E0342EAC01BD015170662734
S1131DF07727452B462B472B09F466C04E895F890C
S1131E00688D798DE881F9812C0121E052228101CC
S1131E1004191509E016F10608F48701CF010E94A0
S1131E20A80281111AC14E805F8068847984D3012D
S1131E30C2019170AA27BB279C01225D3F4F888174
S1131E409981280F391F0130110509F409C1D901FD
S1131E50C801F6014D915D914193519302978230EF
S1131E609105C0F7C80102978E7F0296A601480F1C
S1131E70591F280F391F00FF0EC0D901FA019A011A
S1131E802F5F3F4F8D918193E217F307D9F74E806F
S1131E905F8068847984C00ED11ED301C201800F93
S1131EA0911FA11DB11D8E839F83A887B987F5015A
S1131EB020813181200F311F31832083E01AF10A00
S1131EC009F092CF80E061CFE881F981128111504D
S1131ED0AC01BD0139E076956795579547953A95DC
S1131EE0D1F7142309F47DC08A899B89AC89BD8903
S1131EF09C01AD012250310941095109828993891C
S1131F00A489B5890297A109B109281739074A0795
S1131F105B0708F09FC00281A02FB0E00E94E92176
S1131F2046A057A060A471A4DC01CB01840D951DCB
S1131F30A61DB71D0097A105B10509F48BC03C018E
S1131F404D01610E711C811C911C2701452C5524E7
S1131F5046944114510409F460C0212F30E0A901D2
S1131F60440D551D802F90E08417950718F42C011B
S1131F70421A530A8201A4019301B60181810E948D
S1131F80D81681116AC0E881F9818481882301F11E
S1131F9082A593A5A4A5B5A586199709A809B90989
S1131FA0A20160E070E084179507A607B70780F4E4
S1131FB0DC01BA2FAA27BB0FAC0DBD1DBE969D0137
S1131FC03E5F819191918D939D93A217B307C9F7B9
S1131FD08201102F0027110F4E805F80688479845E
S1131FE05ACF892B8A2B8B2B19F56E857F8588898F
S1131FF09989623071058105910560F16F3FFFEFAA
S11320007F078F079F0749F16A8B7B8B8C8B9D8B96
S1132010E881F981DC01CB016BCF6E8A7F8A888EDF
S1132020998E8E819F81A885B985A301B401ECCED8
S11320304A895B896C897D89423051056105710546
S113204048F082899389A489B589481759076A0792
S11320507B0740F082E08D8398CE81E08D8395CE1E
S1132060A6010BCFCF010E941906C3CF2F923F9236
S11320704F925F926F927F928F929F92AF92BF9294
S1132080CF92DF92EF92FF920F931F93CF93DF9340
S1132090EC016B017A015901F901118210820E944D
S11320A02A02811107C08D81811104C02C8121FD78
S11320B014C087E0DF91CF911F910F91FF90EF90B3
S11320C0DF90CF90BF90AF909F908F907F906F9054
S11320D05F904F903F902F9008958E819F81A885A7
S11320E0B985AC01BD014E0D5F1D611D711D481701
S11320F059076A077B0788F44A855B856C857D856B
S1132100481759076A077B0720F48A879B87AC879F
S1132110BD8720622C8380E0CDCFE114F10461F30C
S1132120812C42E0942EAC01BD01517066277727C3
S1132130452B462B472B09F461C04E895F89688D76
S1132140798DE881F98191708401081B190BE016DF
S1132150F10608F48701CF010E94A80281113AC157
S1132160688179818E819F81A885B9859170AA271C
S1132170BB278E96860F971FD60101301105A9F053
S11321809801FC014D915D91419351932250310985
S113219022303105B8F7D8011297AE7F12968A0F14
S11321A09B1FAC0DBD1D00FF0BC0FC019C012F5FEC
S11321B03F4F8D918193E217F307D9F768817981B5
S11321C021E0FB012483C00ED11E8E819F81A8854E
S11321D0B985800F911FA11DB11D8E839F83A88790
S11321E0B987F50120813181200F311F318320838C
S11321F0E01AF10A09F097CF2C817ECFE881F981AA
S113220012811150AC01BD0139E07695679557955F
S113221047953A95D1F7142371F5892B8A2B8B2B8B
S113222009F0DBC06E857F85888999896115710500
S11322308105910509F4E4C06130710581059105BA
S113224009F4F1C06F3FFFEF7F078F079F0709F481
S1132250C1C06A8B7B8B8C8B9D8B4E845F8468881A
S1132260798845284628472821F46E877F87888BFC
S1132270998BE881F98142A553A564A575A58E893A
S11322809F89A88DB98D481759076A077B0709F4F8
S113229095C08A899B89AC89BD899C01AD01225076
S11322A031094109510982899389A489B589029721
S11322B0A109B109281739074A075B0708F0B3C019
S11322C00281A02FB0E00E94E92146A057A060A49B
S11322D071A4460E571E681E791E411451046104F0
S11322E0710409F4A0C0410E511C611C711C17013A
S11322F0232C332426942114310409F440C0212FC3
S113230030E0A901420D531DCD018417950718F43F
S11323101C01221A330A8101A3019201B6018181B1
S11323200E942C17811156C048815981FA0182A557
S113233093A5A4A5B5A584199509A609B709810192
S113234020E030E080179107A207B30798F4BE9607
S1132350DC01BA2FAA27BB0FAC0DBD1D9A01225D6B
S11323603D4F8D919D9181939193E217F307C9F7A6
S1132370FA0114828101102F0027110F24CF0E813E
S11323801F8128853985D901C8014A855B856C85FB
S11323907D85041715072607370748F084818111C6
S11323A036C042A653A664A675A6D901C8014E8AB2
S11323B05F8A688E798EA201B301C5CE8481882399
S11323C009F467CFCF010E944702811103C0E8815D
S11323D0F9815FCF81E08D836DCE4A895B896C89F9
S11323E07D89CF010E94DC07611571058105910586
S11323F009F022CF8E819F81A885B9852C817CCE5E
S113240040E050E0BA01CF010E94DC07EDCFCF01DC
S11324100E9447028111DECFE881F9810E811F817C
S113242028853985BECF82E08D8344CE0F931F93D8
S1132430CF93DF93EC010E942A02982F811103C0ED
S11324408C8185FD06C0892FDF91CF911F910F915B
S113245008954A8D5B8D6C8D7D8D888199810E9454
S1132460A802982F8111EFCFEE8DFF8D83858062B6
S113247083878A859B85AC85BD85848F958FA68F40
S1132480B78F8E859F85A889B989938F828FB58BE5
S1132490A48B80E090E0A1E2B8E4868B978BA08FB8
S11324A0B18F138A128A8C818F7D8C83E881F981A4
S11324B081E084830990D881C02D8C8181115BC017
S11324C08881833059F040E050E060E089810E94C7
S11324D0A01791E08111B7CF90E0B5CF8D81813005
S11324E091F7BE01625D7F4FFB01CE01825D9D4F7E
S11324F01192E817F907E1F785E59AEAFE01E45D30
S1132500FD4F9183808382E592E5A1E6B1E48EA735
S11325109FA7A8ABB9AB82E792E7A1E4B1E67A97AB
S113252080839183A283B3838E859F85A889B9898B
S1132530349680839183A283B3838A859B85AC85FB
S1132540BD85349680839183A283B3838A8D9B8DCA
S1132550AC8DBD8D9C01AD012F5F3F4F4F4F5F4F41
S11325602AA73BA74CA75DA701E010E089810E9440
S11325702C171D82A8CFCE010E944702982F8111EB
S113258062CF9ECFCF93DF93EC010E941612882373
S113259019F0DF91CF910895CE010E942A02811192
S11325A0F8CF19821882DF91CF9108954F925F92EC
S11325B06F927F928F929F92AF92BF92CF92DF924F
S11325C0EF92FF920F931F93CF93DF9300D000D02D
S11325D000D0CDB7DEB79E838D836A017B010E9454
S11325E02A028111BBC0AD81BE8115968C911597CD
S11325F08111B4C01A968D919D910D90BC91A02D1E
S11326008C159D05AE05BF0538F4ED81FE8124814E
S113261021FD02C06C017D01AD81BE8116964D90F5
S11326205D906D907C901997FD011682178210863B
S11326301186C114D104E104F10409F4A6C0008197
S11326401181D80112968C90912CA12CB12C39E0D7
S1132650880C991CAA1CBB1C3A95D1F7411451044F
S11326606104710419F1B1E04B1A51086108710851
S1132670C701B6016150710981099109A50194014D
S11326800E94C12129833A834B835C83C301B20135
S1132690A50194010E94C12189819A81AB81BC81E9
S11326A082179307A407B50708F02FC1ED81FE81B7
S11326B04685578560897189411551056105710504
S11326C009F441C1ED81FE81428B538B648B758B80
S11326D0411551056105710509F059C0AD81BE81EF
S11326E016968D909D90AD90BC901997C12CD12CCD
S11326F07601D501C4019170AA27BB27ED81FE8123
S1132700892B8A2B8B2B91F086899789A08DB18D8B
S1132710C816D906EA06FB0649F0AD81BE81569675
S1132720CD92DD92ED92FC925997FD0182859385BD
S1132730A485B58588159905AA05BB0530F5AD8135
S1132740BE811A968D929D92AD92BC921D9714965D
S11327508C911497806214968C9380E026960FB621
S1132760F894DEBF0FBECDBFDF91CF911F910F91C3
S1132770FF90EF90DF90CF90BF90AF909F908F909D
S11327807F906F905F904F90089580E0E7CF8C1416
S11327909D04AE04BF0408F005C1AD81BE81ED9176
S11327A0FC919F01ED81FE81848181FD16C0423040
S11327B051056105710558F0F90182899389A4894D
S11327C0B589481759076A077B0708F498C082E05F
S11327D0AD81BE8115968C93C1CFC9010E94DC07DF
S11327E0AB01BC01411551056105710509F4D1C066
S11327F04F3FFFEF5F076F077F0709F4C1C0423007
S113280051056105710518F3AD81BE812D913C918F
S1132810F90182899389A489B589481759076A07F8
S11328207B07A8F6AD81BE8152964D935D936D935F
S11328307C935597FD0186819781A085B185880D8C
S1132840991DAA1DBB1D86839783A087B187C818CD
S1132850D908EA08FB088C149D04AE04BF0408F4EC
S1132860A1CF4C015D018C0C9D1CAE1CBF1CAD8125
S1132870BE8116968D929D92AD92BC921997D70106
S1132880C6019170AA27BB27892B8A2B8B2B09F4AD
S11328907CC0AD81BE81ED91FC919A01AB012250C7
S11328A031094109510982899389A489B58902971B
S11328B0A109B109281739074A075B0708F087CF30
S11328C0A281B0E00E94E92106A117A120A531A5AB
S11328D0DC01CB01800F911FA21FB31F0097A1053C
S11328E0B10509F474CF29E0F694E794D794C7941A
S11328F02A95D1F7C80ED91EEA1EFB1EFACEC901CD
S11329000E941906AB01BC0173CF88279927DC010B
S113291088199909AA09BB09482259226A227B22EB
S1132920AD81BE8116964D925D926D927C921997FF
S1132930C418D508E608F70852964D915D916D913B
S11329407C915597C5CE40E050E0BA01C8010E9481
S1132950DC07AB01BC01413051056105710509F487
S113296036CF4F3FBFEF5B076B077B0749F0AD8165
S1132970BE811E964D935D936D937C935197A2CE29
S113298081E0ED81FE818583E9CEC12CD12C7601D5
S1132990B0CEED81FE8186819781A085B1857501D8
S11329A064015FCFED81FE8186819781A085B18529
S11329B058CF2F988FEF8EBD0DB407FEFDCF8EB587
S11329C082E38093DD029FEF9EBD0DB407FEFDCF31
S11329D08EB58F3F71F08091DD028111F5CF2F9A72
S11329E08FEF8EBD0DB407FEFDCF8EB580E090E075
S11329F0089581E090E00895CF92DF92EF92FF92E4
S1132A00CF93C82F6A017B0187FD5BC0CC3091F066
S1132A102F9A8FEF8EBD0DB407FEFDCF8EB50E94A9
S1132A20D914892B39F48FEFCF91FF90EF90DF9079
S1132A30CF9008958C2F80648EBD0DB407FEFDCF1A
S1132A408EB58F2D9927AA27BB278EBD0DB407FEFF
S1132A50FDCF8EB5C701AA27BB278EBD0DB407FED7
S1132A60FDCF8EB5BB27AF2D9E2D8D2D8EBD0DB404
S1132A7007FEFDCF8EB5CEBC0DB407FEFDCF8EB5DF
S1132A80CC23D9F0C830D9F487E88EBD0DB407FE45
S1132A90FDCF8EB5CC3001F19AE02FEF2EBD0DB4F1
S1132AA007FEFDCF8EB587FFBFCF9150B9F7CF9109
S1132AB0FF90EF90DF90CF90089585E9E6CF81E015
S1132AC0E4CF40E050E0BA0187E30E94FC14823076
S1132AD008F0AACFCF779ACF8FEF8EBD0DB407FE43
S1132AE0FDCF8EB5D9CF24E12093DE023FEF3EBD6A
S1132AF00DB407FEFDCF2EB52F3F39F42091DE0231
S1132B002111F5CF80E090E008952E3FD9F7FC0124
S1132B108FEF8EBD0DB407FEFDCF9EB590838EBDA5
S1132B200DB407FEFDCF9EB59183625071093296B4
S1132B306115710571F78FEF8EBD0DB407FEFDCFE2
S1132B408EB58FEF8EBD0DB407FEFDCF8EB581E03F
S1132B5090E0089522E32093DD023FEF3EBD0DB4E3
S1132B6007FEFDCF2EB52F3F39F02091DD02211154
S1132B70F5CF80E090E008956EBD0DB407FEFDCF63
S1132B802EB56D3F59F1FC019C013E5F80818EBDE5
S1132B900DB407FEFDCF81818EBD0DB407FEFDCFC0
S1132BA03296E217F30791F78FEF8EBD0DB407FE4F
S1132BB0FDCF8EB58FEF8EBD0DB407FEFDCF8EB564
S1132BC08FEF8EBD0DB407FEFDCF2EB52F7181E0C2
S1132BD090E0253011F080E00895089581E090E0C0
S1132BE00895EF92FF920F931F93CF93DF9300D03A
S1132BF000D0CDB7DEB7811149C01CBC209884B188
S1132C00897784B985B1897F85B92F9A8091060126
S1132C1081FD2FC0209A85B1826885B984B1866808
S1132C2084B982E58CBD91E09DBD8CBD8AE09FEFA7
S1132C309EBD0DB407FEFDCF2EB58150C9F740E00F
S1132C4050E0BA010E94FC14813061F110E010934D
S1132C50DC022F9A8FEF8EBD0DB407FEFDCF8EB52B
S1132C601123B1F0809106018E7F8093060180E5E7
S1132C708CBD809106010F900F900F900F90DF9103
S1132C80CF911F910F91FF90EF90089581E0F3CFC2
S1132C901CBC209884B1897784B985B1897F85B9B2
S1132CA02F9AE7CF84E68093DE024AEA51E060E09F
S1132CB070E088E00E94FC14813041F140E050E073
S1132CC0BA0189EA0E94FC14823008F465C011E05C
S1132CD001E008C040E050E0BA01802F0E94FC14DB
S1132CE0882321F08091DE028111F4CF8091DE02ED
S1132CF0882309F4ABCF40E052E060E070E080E16B
S1132D000E94FC14882309F4A2CFA0CF8E010F5F88
S1132D101F4F7E0185E0E80EF11CF8019FEF9EBD78
S1132D200DB407FEFDCF8EB58193EE16FF06B9F7FD
S1132D308B81813009F08ACF8C818A3A09F086CF61
S1132D4009C040E050E060E070E489EA0E94FC14AD
S1132D50882321F08091DE028111F3CF8091DE027D
S1132D60882309F473CF40E050E0BA018AE30E945B
S1132D70FC1481116BCF8FEF8EBD0DB407FEFDCF18
S1132D809EB5F80191938F01EE16FF06A9F789818C
S1132D9086FD05C014E05BCF12E009EAA3CF1CE076
S1132DA056CF811103C080910601089581E00895F2
S1132DB0FF920F931F93CF93DF93EB01882341F08E
S1132DC0C4E08C2FDF91CF911F910F91FF90089554
S1132DD001151105A9F38091060180FF02C0C3E02B
S1132DE0F0CF8091DC0283FD07C069E0220F331F1E
S1132DF0441F551F6A95D1F70230110540F192E145
S1132E00F92EBA01A9018F2D0E94FC14882369F0C0
S1132E10C1E02F9A8FEF8EBD0DB407FEFDCF8EB5A6
S1132E20D0CFDE5F01501109A9F060E072E0CE015D
S1132E300E947315892BA9F7C1E082E1F812E9CF4A
S1132E4040E050E0BA018CE00E94FC14E2CF81E142
S1132E50F82ED7CFC0E0F1CFCF92DF92EF92FF925E
S1132E600F931F93CF93DF93EB0169017A018823BA
S1132E7059F024E0822FDF91CF911F910F91FF90A1
S1132E80EF90DF90CF9008950115110591F3809193
S1132E90060180FF02C023E0EDCF8091060182FF8E
S1132EA002C022E0E7CF8091DC0283FD07C099E0F5
S1132EB0CC0CDD1CEE1CFF1C9A95D1F701301105DA
S1132EC079F1867031F5B701A60189E10E94FC14FD
S1132ED0882369F021E02F9A8FEF8EBD0DB407FE91
S1132EE0FDCF8EB5C7CFDE5F0150110931F06CEF15
S1132EF0CE010E94AA15892BB1F76DEF80E090E016
S1132F000E94AA15892B31F321E0012B21F720E03F
S1132F10E2CFA80160E070E087E90E94FC14D3CFFF
S1132F20B701A60188E10E94FC148111D3CF6EEF92
S1132F30CE010E94AA1521E0892B69F220E0CBCFB3
S1132F40FF920F931F93CF93DF93CDB7DEB76097B4
S1132F500FB6F894DEBF0FBECDBF882369F084E0BE
S1132F6060960FB6F894DEBF0FBECDBFDF91CF9150
S1132F701F910F91FF9008958091060180FF02C078
S1132F8083E0EECF862F90E08733910550F024E064
S1132F902F9A8FEF8EBD0DB407FEFDCF8EB5822F15
S1132FA0DFCF8A01FC01EA5AFF4F0C94E32140E091
S1132FB050E0BA018DE80E94FC1481112AC08FEF01
S1132FC08EBD0DB407FEFDCF8EB560E470E0CAC0BF
S1132FD040E050E0BA018AE30E94FC14811119C058
S1132FE0F80198012C5F3F4F9FEF9EBD0DB407FE83
S1132FF0FDCF8EB58193E217F307B9F720E0C8CF70
S113300040E050E0BA018AE00E94FC14882309F4ED
S1133010A7C021E0BDCF1CBC209884B1897784B9B6
S113302085B1897F85B92F9A80910601816080934B
S1133030060120E0ADCFF090DC0240E050E0BA01A0
S1133040F2FE9FC08DE80E94FC148111E2CF8FEF45
S11330508EBD0DB407FEFDCF8EB560E170E0CE01EC
S113306001960E947315892BA1F280E39FEF9EBD08
S11330700DB407FEFDCF2EB58150C9F72B852295DF
S11330802F7080E190E0A0E0B0E004C0880F991FA9
S1133090AA1FBB1F2A95D2F7F80180839183A283CC
S11330A0B38320E075CF40E050E0BA0189E00E948C
S11330B0FC148111AECF60E170E0CE0101960E9454
S11330C07315892B09F4A5CF8981829586958695F8
S11330D08370813009F485C08985829586958695AB
S11330E08370288590E0F4E02F9F800D911D1124BA
S11330F09C012F5F3F4F8F81837090E0982F88272A
S1133100990F990F820F931FA0E0B0E03E813F70AA
S11331102B85221F2227221F320F2A852370220F7C
S1133120230F275004C0880F991FAA1FBB1F2A957D
S1133130D2F7F80180839183A283B38320E028CF60
S11331400E94D91421E0892B09F422CF20E020CF5A
S113315040E050E0BA0189E00E94FC14811159CF8B
S113316060E170E0C8010E94731521E0892B09F425
S11331700FCF20E00DCF8091DC02FA01808320E0A4
S113318007CF89E00E94FC14811143CF60E170E015
S1133190CE0101960E947315892B09F43ACF8C85D0
S11331A0F1FE43C0881F8827881F90E001962B8575
S11331B02F73820F911D820F911D2E8522952695C6
S11331C026952370215002C0880F991F2A95E2F793
S11331D0A0E0B0E0F80180839183A283B38320E070
S11331E0D7CE298530E0322F22278A85280F311D3A
S11331F088858F7390E0A0E0B0E0DC0199278827F0
S11332000196A11DB11D820F931FA11DB11DEAE0FE
S1133210880F991FAA1FBB1FEA95D1F7F801808375
S11332209183A283B38320E0B3CE282F23708295A9
S11332308695877090E0F8E02F9F800D911D1124F2
S113324001962B852C7730E0359527953595279574
S11332502F5F3F4F829FA001839F500D929F500D7F
S11332601124CA01A0E0B0E0F80180839183A28315
S1133270B38320E08DCE8091DE02882319F0815043
S11332808093DE028091DD02882319F081508093BF
S1133290DD0280910601897F80930601089581E013
S11332A08093D70080EA8093D80082E189BD09B475
S11332B000FEFDCF80E98093D8001092E0001092C8
S11332C0E2021092DF028CE08093E2007894089589
S11332D02FB7F8948091E2028823F9F083E0809379
S11332E0E9008091E80085FD0CC082FF16C09BE6D2
S11332F002C082FF12C09093E8008091E80085FF2D
S1133300F8CF8091F1009091E80095FD03C09BE611
S11333109093E8002FBF90E008952FBF8FEF9FEFA9
S113332008959FB7F8948091E202882391F083E096
S11333308093E9008091F200811109C02091E80096
S113334022FF07C025FD05C02BE62093E8009FBFA0
S1133350089580E09FBF08959091E202992309F4B3
S113336043C09FB7F89424E02093E9002091E00241
S1133370211132C03091E400375E2091E80025FD30
S11333801CC09FBF9091E400391781F19091E20233
S1133390992351F144E009C09FBF9091E40039178B
S11333A029F19091E2029923F9F09FB7F8944093A0
S11333B0E9002091E80025FFEFCF8093F100809190
S11333C0E80085FD03C08AE38093E80085E08093EC
S11333D0E1029FBF80E008952091E80025FF03C02B
S11333E01092E002C7CF9FBF8FEF089581E08093D2
S11333F0E0028FEF08951F920F920FB60F921124DF
S11334008F939F938091E1001092E10083FF11C09C
S11334101092E90091E09093EB001092EC0092E19D
S11334209093ED0098E09093F0001092E2021092D5
S1133430DF0282FF13C08091E202882379F0809139
S1133440E102882359F081508093E102811106C082
S113345084E08093E9008AE38093E8009F918F9150
S11334600F900FBE0F901F9018951F920F920FB6DA
S11334700F9211242F933F934F935F936F937F93F6
S11334808F939F93AF93BF93EF93FF931092E900B1
S11334908091E80083FF3FC06091F1008091F100CA
S11334A02091F1009091F10030E0392B4091F1002E
S11334B09091F10050E0592BA091F100B091F100EE
S11334C092EF9093E8008630D1F1853009F4C7C0BB
S11334D0893009F443C08830D9F0813209F4D6C068
S11334E0803209F468C0823209F4E8C08111FAC05C
S11334F08091E80080FFFCCF623809F4E9C080E0E5
S11335008093F1001092F1008EEF8093E80006C0E2
S1133510603809F4AFC081E28093EB00FF91EF9132
S1133520BF91AF919F918F917F916F915F914F91D7
S11335303F912F910F900FBE0F901F9018958AE125
S113354091E0FC01659174912617370709F448C08E
S1133550079661E084349607A1F7DDCF6111DBCFD4
S11335602093E2021092DF021092E1028EEF809328
S1133570E80081E029ED31E08093E900A9014F5F83
S11335805F4FF90194919093EB00992309F494C04F
S1133590FA0144914093EC003196E4912D5F3F4F42
S11335A0E093ED008F5F853039F78EE18093EA0078
S11335B01092EA00B3CF613209F0ADCF8091E800F8
S11335C082FFFCCFE7E0F1E02EE031E08091F100F2
S11335D081932E173F07D1F78BEF8093E80094CFA8
S11335E0FC013296659174914617570709F0B0CFE4
S11335F0FC01349645915491FC01369624918A2F0E
S113360090E09B2B8F3F910519F010F08FEF90E025
S1133610821708F4282F6EEF8091E800982F957098
S1133620D9F382FD7BCF322F213108F440C030E141
S1133630FA01832F94919093F10081503196811176
S1133640F9CF8FEF830F90E00196480F591F231B8A
S11336506093E8002111E0CF3031F1F25FCF8EEFBB
S11336608093E8008091E80080FFFCCF20682093DD
S1133670E30054CF8091E80080FFFCCF8091E20208
S11336808093F1008EEF8093E80048CF613A09F00F
S113369042CF8091E80080FFFCCFE7E0F1E0819128
S11336A08093F10061E0EE30F607C9F72DCF2111C8
S11336B0BFCF6093E80032CF9A0174CF613209F032
S11336C02ACF2093DF028091E80080FFFCCF1CCF3B
S11336D04093E9008091EB0085FB882780F91092E4
S11336E0E9000ECF982F9D7F913009F014CF6230FE
S11336F009F011CF232B09F00ECF4F779FEF940FD2
S1133700943008F008CF9EEF9093E8004093E900CE
S1133710833009F400CF89E18093EB0081E090E0ED
S113372001C0880F4A95EAF78093EA001092EA00F4
S1133730F5CE8091EB029091EC02A091ED02B09154
S1133740EE0281309C40A105B10530F081E090E0AB
S11337509093F1028093F00208958091F202909187
S1133760F30201979093F3028093F202892B39F0CC
S113377081E090E09093F1028093F00208950E941A
S11337801C0181E08093EF020895CF93F894E1E661
S1133790F0E0C0E8C08310828AE682BF0E94881DE0
S11337A00E94931D8AB1806F8AB980B38F7080BBE9
S11337B08FEF8093D10083E08093C10080E28093F7
S11337C0C000C093D00010927200269A1092BF00DD
S11337D01092BE0069E97BE18DEA9BE10E944501FC
S11337E00E9411017894CF910C949C1F0E945A015D
S11337F081E391E09093F3028093F2021092F1023C
S11338001092F0020E94B31F0E941801599A8BB1C2
S11338108F708BB908950E94C51B8BB18F708BB9C3
S11338201092720080E28093C000CEE3D1E001E008
S113383010E034E0A32E41E2B42E50E2C52E67E638
S1133840E62E61E0F62EDD24D3948BB18F708BB914
S11338505E9A7D9B65C07C99F8CF8BB18F708BB9D4
S11338605C9A8FE291E00E9419220E945A01109200
S1133870F1021092F0020E94D31FDC01CB01880FE9
S1133880991FAA1FBB1F880F991FAA1FBB1F019650
S1133890A11DB11D8093EB029093EC02A093ED0265
S11338A0B093EE020E94DF0160E072E00E945B20B0
S11338B00E94DF0160E072E00E945B20A09272002F
S11338C0B092C0002E9A7E990EC08BB18F708BB9C6
S11338D05C9AD092EF021092F1021092F0021092D0
S11338E07200C092C0008091F0029091F102892B85
S11338F009F047C08091EF02882321F31092EF0270
S11339000E94EA1FFF92EF920E9403220F900F90F1
S11339107C9BFECF8BB18F708BB95E9A7D999BCFC8
S11339205F9ADF93CF930E9403220E94F61B0F90AD
S11339300F907C9B92CF5D9A7E9908C08BB18F705B
S11339408BB95C9A1093F3020093F2028091F00217
S11339509091F102892B01F58091EF02882359F3AC
S11339601092EF020E94C00160E072E00E94072002
S11339700E94EA1F83E591E00E9419227D9BFECFFD
S113398064CF1092F1021092F0020E94DF0160E015
S113399072E00E945B2096CF1092F1021092F00226
S11339A00E94C00160E072E00E940720C4CF1F9211
S11339B00F920FB60F9211242F933F934F935F935F
S11339C06F937F938F939F93AF93BF93EF93FF93E3
S11339D08091E3029091E40201969093E402809333
S11339E0E3028091EB029091EC02A091ED02B09180
S11339F0EE020197A109B1098093EB029093EC02C6
S1133A00A093ED02B093EE02892B8A2B8B2B09F441
S1133A104AC08091E5029091E60201969093E602F5
S1133A208093E5028091E5029091E602029754F1B9
S1133A301092E6021092E50280910E01811150C0AD
S1133A408091E8028823E1F18091E702811140C06E
S1133A508091EA026091E90270E0680F711D072EFF
S1133A60000C880B990B0E94C82020E030E040E055
S1133A705FE30E942C210E9497206093D00081E094
S1133A808093E702FF91EF91BF91AF919F918F9146
S1133A907F916F915F914F913F912F910F900FBE46
S1133AA00F901F9018951092F1021092F00281E08D
S1133AB08093EF021092720080E28093C000E2CF04
S1133AC08091EA028093D00081E08093E802DACF0B
S1133AD08091E9028093D00081E080930E01D2CFDF
S1133AE00E9493018093EA020E9493018093E90269
S1133AF01092E8021092E70210920E01C3CF0E94C6
S1133B0091198823E1F30E94681908950C94AC1963
S1133B100E944F19EBE7F9E08FE091E091838083F5
S1133B2093838283089580E887BD82E084BD809377
S1133B306E0085BD579A08951F920F920FB60F928B
S1133B4011242F933F934F935F936F937F938F939E
S1133B509F93AF93BF93EF93FF9380911F01815085
S1133B6080931F01882329F180911D0190911E01EA
S1133B70019790931E0180931D01892B49F485E8D8
S1133B809EE190931E0180931D018BB180588BB9E7
S1133B90FF91EF91BF91AF919F918F917F916F9121
S1133BA05F914F913F912F910F900FBE0F901F90F7
S1133BB018958CE980931F010E943B19D5CFCF92B1
S1133BC0DF92EF92FF920F931F93CF93DF93D42F43
S1133BD0C22FEFE4F9E022E5208329E4218326E4DF
S1133BE022832383148215821682178227E5208775
S1133BF021E4218726E5228725E4238726E62487F6
S1133C002DE6258714E7168720E2278720E1C22EB8
S1133C10D12CE12CF12CC08AD18AE28AF38A21E0EA
S1133C2030E0358B248B2C2F30E0378B268B608F44
S1133C30718F828F938F042F069506950695A02F7A
S1133C40B0E09B01AC010E94E9219B01AC01AC2FC7
S1133C50B0E00E94E921648F758F868F978FC09F93
S1133C609001112431A320A34D2F50E053A342A36C
S1133C7084E684A381E685A316A387A310A611A6D0
S1133C8012A613A6DF91CF911F910F91FF90EF9091
S1133C90DF90CF900895CF93DF9300D0CDB7DEB7F8
S1133CA021E048E069E07DE380E090E00E94DF1DD0
S1133CB09E012F5F3F4F4CE250E06FE479E08FE2CA
S1133CC099E00E943610811119C089819A818C3241
S1133CD0910561F09F938F938EE891E09F938F936A
S1133CE00E9403220F900F900F900F9081E0809319
S1133CF0F4020F900F90DF91CF9108951F928F934C
S1133D008DE691E09F938F930E9403220F900F9072
S1133D100F900F90DACF0F931F93CF93DF9300D0C0
S1133D20CDB7DEB79E012F5F3F4F4CE250E06FE40A
S1133D3079E08FE299E00E94A10E81112DC0898162
S1133D409A818C329105C9F000E010E09F938F9323
S1133D5084ED91E09F938F930E94032281E090E091
S1133D600F900F900F900F9029813A812C323105DA
S1133D7081F1082B192B012B11F5609177097091B2
S1133D8078098091790990917A090F900F90DF91C9
S1133D90CF911F910F910895082F10E01F928F93D8
S1133DA084EB91E09F938F930E94032289819A81EF
S1133DB00F900F900F900F908C32910539F660E0C0
S1133DC070E0CB010F900F90DF91CF911F910F9175
S1133DD0089580E090E0082B192B012B71F2EFCFAE
S1133DE0CF93DF93CDB7DEB72A970FB6F894DEBF33
S1133DF00FBECDBF8091F5029091F602A091F7021B
S1133E00B091F8028D839E83AF83B8878496A11DF9
S1133E10B11D89839A83AB83BC8344E050E060E0A6
S1133E2070E08FE299E00E94D612811151C09E0188
S1133E30275F3F4F44E050E0BE016F5F7F4F8FE24A
S1133E4099E00E94361081116AC089859A85843070
S1133E50910561F09F938F938BE192E09F938F93F1
S1133E600E9403220F900F900F900F9048E250E0B1
S1133E7060E070E08FE299E00E94D612811142C0A6
S1133E809E01275F3F4F44E050E0BE016B5F7F4FD0
S1133E908FE299E00E943610811127C089859A85A6
S1133EA08430910561F09F938F938BE192E09F930F
S1133EB08F930E9403220F900F900F900F902A96D9
S1133EC00FB6F894DEBF0FBECDBFDF91CF9108953A
S1133ED01F928F938AEF91E09F938F930E94032206
S1133EE00F900F900F900F90A2CF1F928F938DE69B
S1133EF091E09F938F930E9403220F900F900F9055
S1133F000F90CCCF1F928F938AEF91E09F938F9362
S1133F100E9403220F900F900F900F90B1CF1F9229
S1133F208F938DE691E09F938F930E9403220F90CD
S1133F300F900F900F9089CF41E060E472E081E030
S1133F4097E00E94350B811101C008951F928F9351
S1133F5082E492E09F938F930E9403220F900F902C
S1133F600F900F9008954BE063E672E08FE299E0C2
S1133F700E947D0B882361F01F928F938EE692E05E
S1133F809F938F930E9403220F900F900F900F9096
S1133F900E944B1E1092F5021092F6021092F70244
S1133FA01092F802089541E063E672E08FE299E02E
S1133FB00E947D0B882361F01F928F938EE692E01E
S1133FC09F938F930E9403220F900F900F900F9056
S1133FD00C948B1E8091F402811114C08FE299E03D
S1133FE00E94C212811101C008951F928F938EE81E
S1133FF092E09F938F930E9403220F900F900F9053
S11340000F9008951092F4020E94F01EE7CF0F93D0
S11340101F93CF93DF9300D0CDB7DEB78B019E0102
S11340202F5F3F4FAB01BC018FE299E00E94361035
S1134030811134C089819A810817190791F01F935F
S11340400F939F938F938FEA92E09F938F930E9495
S1134050032289819A810F900F900F900F900F90F7
S11340600F904091F5025091F6026091F702709121
S1134070F8028A019B01080F191F211D311D0093AD
S1134080F5021093F6022093F7023093F8020F9092
S11340900F90DF91CF911F910F9108951F928F93ED
S11340A08DE691E09F938F930E9403220F900F90CF
S11340B00F900F90BFCF0F931F93CF93DF9300D038
S11340C0CDB7DEB78B019E012F5F3F4FAB01BC0123
S11340D08FE299E00E94A10E81111CC089819A810E
S11340E00817190781F01F930F939F938F938FEAFB
S11340F092E09F938F930E9403220F900F900F9052
S11341000F900F900F900F900F90DF91CF911F9110
S11341100F9108951F928F938DE691E09F938F9353
S11341200E9403220F900F900F900F90D7CF0E9400
S11341300B2188F09F5798F0B92F9927B751B0F009
S1134140E1F0660F771F881F991F1AF0BA95C9F717
S113415014C0B13091F00E942521B1E008950C946F
S11341602521672F782F8827B85F39F0B93FCCF322
S1134170869577956795B395D9F73EF49095809594
S1134180709561957F4F8F4F9F4F0895E89409C0B4
S113419097FB3EF490958095709561957F4F8F4F76
S11341A09F4F9923A9F0F92F96E9BB279395F6958C
S11341B0879577956795B795F111F8CFFAF4BB0F0A
S11341C011F460FF1BC06F5F7F4F8F4F9F4F16C06E
S11341D0882311F096E911C0772321F09EE8872FF8
S11341E0762F05C0662371F096E8862F70E060E0B4
S11341F02AF09A95660F771F881FDAF7880F96952D
S1134200879597F9089557FD9058440F551F59F015
S11342105F3F71F04795880F97FB991F61F09F3FAF
S113422079F087950895121613061406551FF2CFD8
S11342304695F1DF08C0161617061806991FF1CF28
S113424086957105610508940895E894BB2766274F
S11342507727CB0197F908950E943F210C94B02150
S11342600E94A22138F00E94A92120F0952311F088
S11342700C9499210C949F2111240C9426210E94C2
S1134280032170F3959FC1F3950F50E0551F629F72
S1134290F001729FBB27F00DB11D639FAA27F00D9B
S11342A0B11DAA1F649F6627B00DA11D661F829FC2
S11342B02227B00DA11D621F739FB00DA11D621FA7
S11342C0839FA00D611D221F749F3327A00D611DC4
S11342D0231F849F600D211D822F762F6A2F1124A6
S11342E09F5750409AF0F1F088234AF0EE0FFF1FD9
S11342F0BB1F661F771F881F91505040A9F79E3F30
S1134300510580F00C9499210C9426215F3FE4F32D
S1134310983ED4F3869577956795B795F795E79585
S11343209F5FC1F7FE2B880F911D9695879597F98E
S1134330089597F99F6780E870E060E008959FEF23
S113434080EC089500240A94161617061806090628
S1134350089500240A9412161306140605060895F7
S1134360092E0394000C11F4882352F0BB0F40F47F
S1134370BF2B11F460FF04C06F5F7F4F8F4F9F4FBF
S11343800895A1E21A2EAA1BBB1BFD010DC0AA1F92
S1134390BB1FEE1FFF1FA217B307E407F50720F0AA
S11343A0A21BB30BE40BF50B661F771F881F991F25
S11343B01A9469F760957095809590959B01AC016E
S11343C0BD01CF010895EE0FFF1F0590F491E02D7C
S11343D009940E94F421A59F900DB49F900DA49F71
S11343E0800D911D11240895A29FB001B39FC001B7
S11343F0A39F700D811D1124911DB29F700D811D0D
S11344001124911D0895A0E0B0E0E9E0F2E20C94DB
S1134410EA24AE014B5F5F4FFA0161917191AF01E4
S113442080917D0990917E090E944922E2E00C94DA
S113443006250F931F93CF93DF93E0917D09F091AD
S11344407E09238121FF1BC08C01D0E0C0E0F8016C
S113445081918F0160917D0970917E09DB0118962D
S1134460ED91FC911997882331F00995892B79F303
S1134470DFEFCFEFECCF8AE00995892B19F08FEFAE
S11344809FEF02C08D2F9C2FDF91CF911F910F9131
S11344900895ABE0B0E0EFE4F2E20C94DA246C01AE
S11344A07B018A01FC0117821682838181FFCCC1C2
S11344B0CE0101963C01F6019381F70193FD8591AC
S11344C093FF81917F01882309F4BAC1853239F4BD
S11344D093FD859193FF81917F01853229F4B60183
S11344E090E00E944024E7CF912C212C312CFFE155
S11344F0F315D8F08B3279F038F4803279F08332C6
S1134500A1F4232D20611DC08D3261F0803369F444
S1134510232D216016C0832D8260382EE32DE460A4
S11345203E2E2AC0F32DF8601DC037FC2DC020EDAF
S1134530280F2A3040F08E32B9F436FC81C1232D85
S11345402064322E19C036FE06C08AE0989E200DE3
S11345501124922E11C0EAE02E9E200D1124222E49
S1134560F32DF0623F2E08C08C3621F4832D806831
S1134570382E02C0883641F4F70193FD859193FFEC
S113458081917F018111B3CF982F9F7D95549330F2
S113459028F40C5F1F4F9FE399830DC0833631F0DD
S11345A0833771F0833509F059C021C0F801808147
S11345B089830E5F1F4F88248394912C530113C069
S11345C02801F2E04F0E511CF801A080B18036FEA4
S11345D003C0692D70E002C06FEF7FEFC5010E9438
S11345E035244C018201F32DFF773F2E16C028019C
S11345F022E0420E511CF801A080B18036FE03C0B7
S1134600692D70E002C06FEF7FEFC5010E942A247C
S11346104C01F32DF0683F2E820133FC1BC0822D28
S113462090E088169906B0F4B60180E290E00E940A
S113463040242A94F4CFF50137FC859137FE81910B
S11346405F01B60190E00E94402421102A9421E0E9
S1134650821A91088114910471F7E8C0843611F02C
S1134660893641F5F80137FE07C060817181828186
S113467093810C5F1F4F08C060817181072E000C6D
S1134680880B990B0E5F1F4FF32DFF763F2E97FF7C
S113469009C090958095709561957F4F8F4F9F4F7E
S11346A0F0683F2E2AE030E0A3010E947C24882E8B
S11346B0861845C0853731F4232D2F7EB22E2AE08B
S11346C030E025C0932D997FB92E8F36C1F018F4B0
S11346D0883579F0B5C0803719F0883721F0B0C03B
S11346E0E92FE061BE2EB4FE0DC0FB2DF460BF2E99
S11346F009C034FE0AC0292F2660B22E06C028E065
S113470030E005C020E130E002C020E132E0F801F1
S1134710B7FE07C060817181828193810C5F1F4F56
S113472006C06081718180E090E00E5F1F4FA3019D
S11347300E947C24882E8618FB2DFF773F2E36FEA0
S11347400DC0232D2E7FA22E891458F434FE0BC0E5
S113475032FC09C0832D8E7EA82E05C0B82CA32C54
S113476003C0B82C01C0B92CA4FE0FC0FE01E80D93
S1134770F11D8081803321F49A2D997EA92E09C0E0
S1134780A2FE06C0B394B39404C08A2D867809F0BF
S1134790B394A3FC11C0A0FE06C0B21488F4280C84
S11347A0922C9B180EC0B21460F4B60180E290E023
S11347B00E944024B394F7CFB21418F42B1802C00B
S11347C0982C212CA4FE10C0B60180E390E00E9436
S11347D04024A2FE17C0A1FC03C088E790E002C0F9
S11347E088E590E0B6010CC08A2D867859F0A1FEC8
S11347F002C08BE201C080E2A7FC8DE2B60190E02A
S11348000E944024891438F4B60180E390E00E94A9
S113481040249A94F7CF8A94F301E80DF11D808126
S1134820B60190E00E9440248110F5CF222009F4C3
S113483042CEB60180E290E00E9440242A94F6CF52
S1134840F6018681978102C08FEF9FEF2B96E2E1FC
S11348500C94F624FC010590615070400110D8F7C7
S1134860809590958E0F9F1F0895FC0161507040B4
S113487001900110D8F7809590958E0F9F1F089591
S11348800F931F93CF93DF93FB01238121FD03C07B
S11348908FEF9FEF2CC022FF16C0468157812481E1
S11348A035814217530744F4A081B1819D012F5FE4
S11348B03F4F318320838C93268137812F5F3F4F75
S11348C03783268314C08B01EC01FB010084F1853E
S11348D0E02D0995892BE1F6D80116968D919C91CE
S11348E01797019617969C938E931697CE01DF9196
S11348F0CF911F910F910895FA01AA27283051F101
S1134900203181F1E8946F936E7F6E5F7F4F8F4FFC
S11349109F4FAF4FB1E03ED0B4E03CD0670F781F5B
S1134920891F9A1FA11D680F791F8A1F911DA11D40
S11349306A0F711D811D911DA11D20D009F4689479
S11349403F912AE0269F11243019305D3193DEF621
S1134950CF010895462F4770405D4193B3E00FD0D7
S1134960C9F7F6CF462F4F70405D4A3318F0495DC2
S113497031FD4052419302D0A9F7EACFB4E0A695A5
S11349809795879577956795BA95C9F700976105C7
S1134990710508959B01AC010A2E0694579547951D
S11349A037952795BA95C9F7620F731F841F951F12
S11349B0A01D08952F923F924F925F926F927F9223
S11349C08F929F92AF92BF92CF92DF92EF92FF921B
S11349D00F931F93CF93DF93CDB7DEB7CA1BDB0BC7
S11349E00FB6F894DEBF0FBECDBF09942A8839886C
S11349F048885F846E847D848C849B84AA84B98473
S1134A00C884DF80EE80FD800C811B81AA81B9817E
S1134A10CE0FD11D0FB6F894DEBF0FBECDBFED0192
S1094A200895F894FFCF95
S1134A26FF06FF04FF020100E10000000008010088
S1134A3600000300000000861D7F1D0000851E9CEB
S1134A46222A2B2C3A3B3C3D3E3F5B5D7C7F00504B
S1134A567265706172696E672066696C650052657D
S1134A66636F7264696E6720737461727465642E11
S1134A762E2E005265636F7264696E6720434F4D34
S1134A86504C4554452100444F4E452100665F77FE
S1134A96726974652072657475726E6564206572D8
S1134AA6726F7220636F64653A2025640A00665F3C
S1134AB677726974652077726F7465202564206F38
S1134AC66620343420627974657320746F206669B5
S1134AD66C652E00665F726561642072657475721A
S1134AE66E6564206572726F7220636F64653A2026
S1134AF625640A00665F72656164207265616420DC
S1134B062564206F662034342062797465732066C8
S1134B16726F6D2066696C652E00665F6C736565E1
S1134B266B2072657475726E6564206572726F723D
S1134B3620636F64653A2025640A00665F777269AC
S1134B4674652077726F7465202564206F6620343F
S1134B5620627974657320746F2066696C652E0013
S1134B662F00665F6D6F756E742072657475726E54
S1134B766564206572726F7220636F64653A2025DE
S1134B86640A004547423234302E57415600665F68
S1134B966F70656E2072657475726E6564206572D9
S1134BA6726F7220636F64653A2025640A00665F3B
S1134BB6636C6F73652072657475726E65642065C7
S1134BC672726F7220636F64653A2025640A006608
S1134BD65F77726974652077726F74652025642027
S1134BE66F6620256420627974657320746F20666D
S1094BF6696C652E00004D
S9030000FC
